:100000000C94BB000C94D8000C94D8000C94D8002D
:100010000C94D8000C94D8000C94D8000C94D80000
:100020000C94D8000C94D8000C94D8000C94D800F0
:100030000C94D8000C94D8000C94D8000C94D800E0
:100040000C94D8000C94D8000C9437010C94D80070
:100050000C94D8000C94D8000C94D8000C94D800C0
:100060000C94D8000C94D8006E616E00696E660026
:1000700000407A10F35A00A0724E18090010A5D45F
:10008000E80000E87648170000E40B54020000CABC
:100090009A3B000000E1F505000080969800000002
:1000A00040420F000000A086010000001027000061
:1000B0000000E803000000006400000000000A00E7
:1000C000000000000100000000002C76D888DC67EA
:1000D0004F0823DFC1DFAE59E1B1B796E5E3E45342
:1000E000C63AE651997696E8E6C28426EB898C9B5F
:1000F00062ED407C6FFCEFBC9C9F40F2BAA56FA5FF
:10010000F490055A2AF75C936B6CF9676DC11BFC80
:10011000E0E40D47FEF520E6B500D0ED902E03009B
:10012000943577050080841E080000204E0A0000E8
:1001300000C80C333333330F986E12831141EF8DA7
:100140002114893BE65516CFFEE6DB18D1844B38E7
:100150001BF77C1D901DA4BBE424203284725E2218
:100160008100C9F124ECA1E53D276364696E6F70DD
:10017000737578585B0011241FBECFEFD8E0DEBF47
:10018000CDBF11E0A0E0B1E0E8E5F5E102C00590E7
:100190000D92A43DB107D9F722E0A4EDB1E001C072
:1001A0001D92A932B207E1F70E9473010C94AA0ACA
:1001B0000C9400009091C00095FFFCCF8093C60086
:1001C0008091C00086FFFCCF0895CF93DF93EC01B0
:1001D0008991811103C0DF91CF9108950E94DA00C7
:1001E000F7CF0E94E5008DE00E94DA008AE00C94CF
:1001F000DA00662351F1289A87FF29C05F9A86FFAB
:1002000028C05E9A85FF27C05D9A84FF26C05C9A4D
:10021000299AEFE3FFE13197F1F700C00000299838
:1002200083FF1DC05F9A82FF1CC05E9A81FF1BC0C6
:100230005D9A80FF1AC05C9A299A8FE39FE101972B
:10024000F1F700C00000299808952898D5CF5F984D
:10025000D6CF5E98D7CF5D98D8CF5C98D9CF5F982E
:10026000E2CF5E98E3CF5D98E4CF5C98E5CF1F9234
:100270000F920FB60F9211242F933F934F938F93AA
:100280009F938091C0009091C0004091C6008295DC
:100290008F70969596959695892B282F217030E032
:1002A00080912802282B232B39F44A3079F480914D
:1002B00027028F5F809327029F918F914F913F91EB
:1002C0002F910F900FBE0F901F9018954D30A1F3F6
:1002D000809127028F5F80932702823268F381E04A
:1002E00080932802E9CF8FE59AEE0197F1F700C0DD
:1002F0000000549A559A569A579A209A219A229A0F
:100300002A9A60E083E30E94F9008FE19EE401975E
:10031000F1F700C0000060E082E30E94F9008FE185
:100320009EE40197F1F700C0000060E088E20E94BF
:10033000F9008FE19EE40197F1F700C0000060E052
:100340008CE00E94F90060E086E00E94F90060E025
:1003500081E00E94F9001092D5011092D4018091A1
:10036000C2008F778093C2008091C2008F7B809300
:10037000C2008091C2008F7D8093C2008091C20034
:100380008F7E8093C2008091C200877F8093C200DD
:100390008091C1008B7F8093C1008091C2008460F6
:1003A0008093C2008091C20082608093C2008091DD
:1003B000C10088608093C1008091C10080618093FA
:1003C000C1008091C10080688093C1008091C0000D
:1003D00082608093C0001092C50080E18093C400C9
:1003E000109227021092280280E091E00E94E5001E
:1003F00084E691E00E94F10087EE91E09F938F9355
:1004000089E192E09F938F938FE791E09F938F9381
:1004100080E091E09F938F930E94960799279F9386
:100420008F938EEA91E09F938F9386ED91E09F9357
:100430008F930E947307C6EDD1E08DB79EB70E96DD
:100440000FB6F8949EBF0FBE8DBF8991811119C060
:1004500089EB91E00E94E50089E192E00E94F100C1
:1004600084E691E00E94F10087EC91E00E94E500B3
:1004700087EE91E00E94F10084E691E00E94F10095
:10048000FFCF61E00E94F9008091D5018F5F8093DA
:10049000D5018031D1F68091D4018F5F8093D40152
:1004A0001092D501823039F41092D40180E860E0D6
:1004B0000E94F900CACF8130C9F780ECF8CFAFE0D5
:1004C000B0E0E5E6F2E00C94C0056C011B015A01B6
:1004D000FC0117821682838181FF48C39E012F5F32
:1004E0003F4F4901F6019381F10193FD859193FFFF
:1004F00081911F01882309F4E7C2853239F493FD05
:10050000859193FF81911F01853239F4B60190E006
:100510000E94E50635015301E5CFF12C512C00E096
:10052000003238F48B3209F190F48032F9F08332E2
:1005300009F107FD34C020ED280F2A3020F506FF11
:100540001BC0FAE0FF9E200D1124F22E05C08D3253
:1005500079F0803371F70160F10193FD859193FF8C
:1005600081911F018111DCCF1AC002600460F4CFB9
:100570000860F2CF0061F0CF3AE0539E200D1124C5
:10058000522E0062E9CF8E3221F406FD9DC2006436
:10059000E3CF8C3611F40068DFCF8836E9F29BEBAD
:1005A000980F933008F05FC00061805E06FD02C0C6
:1005B00046E0F42E102F1F73853609F05BC01064DF
:1005C00017FF61C08F2D9BE39F1508F48BE3442434
:1005D0004394480E27E03501F4E06F0E711CF501DD
:1005E0006081718182819381042DA4010E94F705AD
:1005F0005C01F981FC87F0FF03C00DE2F3FF07C047
:100600000BE211FD04C0012F047012FD00E22C85E5
:100610002C70E22E09F457C00111ABC2F3E0E12CBB
:10062000F515A0F483E0E52CE81A13FD08C0B60127
:1006300080E290E00E94E506EA94E110F8CF002302
:1006400029F0B601802F90E00E94E5063C8528E65F
:10065000A22E20E0B22E33FD04C09CE6A92E90E02D
:10066000B92E107122C09BE9980F933008F033C166
:100670000F7E9CCF863611F41068A2CFFF2009F4BC
:100680009FCFFA949DCFE7E02F2DEF1518F427E0C8
:1006900037E0F32E412C9FCF11118052B60190E02C
:1006A0000E94E5068FEFA81AB80AF501849181111E
:1006B000F3CFEE2009F42FCFB60180E290E00E9444
:1006C000E506EA94F6CF17FF6FC04A0CFC85F4FFED
:1006D00004C08A81813309F44A9414140CF086C052
:1006E00028E0241510F488E0482E85E090E017FFFC
:1006F00006C0C501B7FE02C090E080E0019601117E
:100700000196FF2031F02F2D30E02F5F3F4F820FF9
:10071000931F5816190619F014F0E52CE81A812FCA
:10072000897011F4E11067C0002329F0B601802F11
:1007300090E00E94E50613FD02C0E11063C017FFC0
:100740007CC08501B7FE02C010E000E0C50184193D
:1007500091092C016F2D70E0EE27FF27E61BF70BA8
:10076000FF87EE870F3F100729F4B6018EE290E075
:100770000E94E506A016B1060CF44BC040165106C7
:100780000CF047C0F501E01BF10BE80DF91D81816C
:10079000015011092E853F8502171307E4F1B601B8
:1007A00090E00E94E506DECF16FD9FCFEF2DF0E032
:1007B000EA15FB0534F03CEFA3163FEFB3060CF04F
:1007C00010683296E80DF91D01C0FA94FF2019F067
:1007D00082918033D1F317FF88CF442443944F0C88
:1007E000FA141B0431F02CF0FA187FCF4424439400
:1007F0007CCFF12C7ACFB60180E290E00E94E50632
:10080000EA9490CFB60180E390E00E94E506EA9476
:1008100094CF80E3BDCFA016B10641F49A81963300
:1008200050F4953319F43C8534FF05C0B60190E0CF
:100830000E94E5063ECF81E3F9CF8A81813319F02A
:100840009C859F7E9C87B60190E00E94E506FF2074
:10085000A9F0B6018EE290E00E94E506F394F394CD
:10086000E2E001E00E0FE80DF92DF11D8081B601E7
:1008700090E00E94E506E02F0F11F3CF85E690E0AF
:1008800014FF02C085E490E0B6010E94E506B7FCC3
:1008900006C0A114B104C1F4EC85E4FF15C0B19405
:1008A000A194B1088DE2B60190E00E94E50680E3D4
:1008B0002AE0A216B10454F4B60190E00E94E506C5
:1008C000B601C501C096B4CF8BE2EDCF8F5FFAE0E1
:1008D000AF1AB108EDCF8336C9F0833771F1833594
:1008E00009F05BC03501F2E06F0E711CF501A080CC
:1008F000B1806F2D70E006FD02C06FEF7FEFC50184
:100900000E94CF069D878C8700680DC0350132E0BC
:10091000630E711CF5018081898321E030E03D8701
:100920002C8754010F7703FD06C02C853D85521698
:10093000130609F0A8F4E52C2BC0350132E0630E54
:10094000711CF501A080B1806F2D70E006FD02C022
:100950006FEF7FEFC5010E94DA069D878C87E2CF9B
:10096000B60180E290E00E94E5065A94DECFF501E0
:1009700007FD859107FF81915F01B60190E00E941C
:10098000E506E110EA948C859D8501979D878C870B
:10099000EC85FD85EF2B59F78CCE843619F089361E
:1009A00009F074C0350107FF66C0F4E06F0E711CDA
:1009B000F5016081718182819381102F1F7697FFED
:1009C00008C090958095709561957F4F8F4F9F4F90
:1009D00010682AE030E0A4010E941507A82EA8188C
:1009E000BA2C012F16FF0AC00E7FAF1438F414FF83
:1009F00004C012FD02C0012F0E7EBF2C04FF8EC06A
:100A0000FE01EA0DF11D8081803309F080C0097E6E
:100A1000F02FF870EF2E03FD90C000FF8AC0FA2C73
:100A2000B51410F4F50CFB1804FF8DC0B60180E37B
:100A300090E00E94E50602FF09C088E790E001FF10
:100A400002C088E590E0B6010E94E506AF1408F404
:100A500086C0AA940A2D10E00F5F1F4F080D191DC4
:100A6000F80182918F01B60190E00E94E5068016A0
:100A70009106B1F71ECEF2E06F0E711CF501608198
:100A80007181072E000C880B990B97CF102F85379B
:100A9000A9F41F7E2AE030E0350117FF2FC0F4E0F3
:100AA0006F0E711CF5016081718182819381A401B7
:100AB0000E941507A82EA8181F7792CF197F8F368E
:100AC000D1F048F4883591F0F601868197812F9610
:100AD000E2E10C94DC05803739F08837A9F714FD82
:100AE000146020E130E0D8CF1061F9CF04FD16602A
:100AF00020E132E0D1CF28E030E0CECFF2E06F0E3F
:100B0000711CF5016081718190E080E0D0CF02FD21
:100B100002C0B3947DCFB394B3947ACF802F8678FC
:100B200009F476CFF6CFB60180E290E00E94E506A8
:100B3000B394B514C0F3E12C77CFE52CEB18B514C2
:100B400008F472CFF8CF802F867809F47FCF8BE23C
:100B500001FF80E207FD8DE2B60190E075CFB6019E
:100B600080E390E00E94E506FA9470CF8FEF9FEF4C
:100B7000AECF24E0E12C251508F063CD84E053CD01
:100B80002F923F924F925F926F927F928F929F929D
:100B9000AF92BF92CF92DF92EF92FF920F931F938B
:100BA000CF93DF93CDB7DEB7CA1BDB0B0FB6F8943C
:100BB000DEBF0FBECDBF09942A88398848885F847C
:100BC0006E847D848C849B84AA84B984C884DF80ED
:100BD000EE80FD800C811B81AA81B981CE0FD11DD1
:100BE0000FB6F894DEBF0FBECDBFED0108952830DB
:100BF00008F027E03327DA01990F311D87FD916056
:100C000000966105710539F432602E5F3D9330E343
:100C10002A95E1F708959F3F30F08038710561050E
:100C200009F03C5F3C5F3D93913008F08068911D76
:100C3000DF93CF931F930F93FF92EF92192F987F1B
:100C40009695E92F96959695E90FFF27E653FF4F66
:100C500099273327EE24FF24A701E7010590089484
:100C6000079428F4360FE71EF81E491F511D660F22
:100C7000771F881F991F0694A1F70590079428F401
:100C8000E70EF81E491F561FC11D770F881F991FB9
:100C9000661F0694A1F70590079428F4F80E491FE3
:100CA000561FC71FD11D880F991F661F771F0694F7
:100CB000A1F70590079420F4490F561FC71FD81FAE
:100CC000990F661F771F881F0694A9F784911095C6
:100CD000177041F0D695C79557954795F794E794C7
:100CE0001A95C1F7E0E7F0E06894159015913591F9
:100CF0006591959105907FE27395E118F10A430B98
:100D0000560BC90BD009C0F7E10CF11E431F561F4B
:100D1000C91FD01D7EF4703311F48A95E6CFE89494
:100D2000015030F0080F0AF40027021708F4202FB2
:100D30002395022F7A3328F079E37D932A95E9F7FA
:100D400010C07D932A9589F60694979567953795F7
:100D500017951794E118F10A430B560BC90BD009EC
:100D600098F023957E9173957A3308F070E37C9325
:100D70002013B8F77E9170617D9330F0839571E315
:100D80007D9370E32A95E1F71124EF90FF900F9186
:100D90001F91CF91DF91992787FD90950895FC01D0
:100DA0000590615070400110D8F7809590958E0F96
:100DB0009F1F0895FC016150704001900110D8F709
:100DC000809590958E0F9F1F08950F931F93CF933B
:100DD000DF93182F092FEB018B8181FD09C01FEFD5
:100DE0000FEF812F902FDF91CF911F910F910895D9
:100DF00082FF14C02E813F818C819D812817390785
:100E00003CF4E881F981CF010196998388831083AE
:100E10008E819F8101969F838E83E3CFE885F9853C
:100E2000812F0995892BA1F3DACFFA01AA2728305F
:100E300051F1203181F1E8946F936E7F6E5F7F4FA7
:100E40008F4F9F4FAF4FB1E03ED0B4E03CD0670F23
:100E5000781F891F9A1FA11D680F791F8A1F911D76
:100E6000A11D6A0F711D811D911DA11D20D009F4C6
:100E700068943F912AE0269F11243019305D319308
:100E8000DEF6CF010895462F4770405D4193B3E0F1
:100E90000FD0C9F7F6CF462F4F70405D4A3318F098
:100EA000495D31FD4052419302D0A9F7EACFB4E049
:100EB000A6959795879577956795BA95C9F7009701
:100EC0006105710508959B01AC010A2E06945795A2
:100ED000479537952795BA95C9F7620F731F841FF9
:100EE000951FA01D0895AEE0B0E0E9E7F7E00C948F
:100EF000CE050D891E8986E08C831A8309838FEFC6
:100F00009FE79E838D83AE01475E5F4F6F89788D2B
:100F1000CE0101960E945F022F813885020F131FB8
:100F2000F80110822E96E4E00C94EA05AEE0B0E001
:100F3000ECE9F7E00C94D00585E08C838B899C89E3
:100F40009A838983AE01495E5F4F6D897E89CE01A8
:100F500001960E943A092E96E2E00C94EC0520FDE1
:100F600009C0FC0123FD05C022FF02C07383628318
:100F700051834083089544FD17C046FD1DC0DB0129
:100F8000FC01AA0FBB1FEE1FFF1F1094D1F76A0FC1
:100F90007B1F8E1F9F1F660F771F881F991F620F71
:100FA000711D811D911D089533E0660F771F881F05
:100FB000991F3150D1F7F3CF34E0F7CF0F931F9340
:100FC000CF93DF938C01C8010E94530AEC0197FD77
:100FD00008C00E943F0A892BB1F7B801CE010E94D8
:100FE0008F0ACE01DF91CF911F910F9108958F92BB
:100FF0009F92AF92BF92EF92FF920F931F93CF9366
:10100000DF938C01D62F7A01B22E0E94530A9C01E5
:1010100033272B32310529F02D323105A9F468949C
:10102000B7F8D15061F480E0DF91CF911F910F911B
:10103000FF90EF90BF90AF909F908F900895C80160
:101040000E94530A97FDEFCFCB2DCD7F2B2D207320
:10105000F9F48033E9F4AA24AA94AD0E89F0C8010A
:101060000E94530A97FD0CC0282F2F7D283561F46C
:10107000C264D25029F0C8010E94530A97FF08C0E9
:10108000812C912C54011BC0B6FE2BC0C260DA2DFE
:10109000812C912C540120ED280F283028F1C4FD1B
:1010A00009C02A3008F1C6FF05C02F7D3FEE320F80
:1010B0003630C8F0B8010E948F0AC1FFB4CFC7FF15
:1010C00008C0B094A09490948094811C911CA11CA1
:1010D000B11C2C2FB501A401C7010E94AF0781E00C
:1010E000A3CFC261D4CF27504C2FC501B4010E94B9
:1010F000BB074B015C01C260D15009F3C8010E94DB
:10110000530A97FFC8CFD9CFA0E2B0E0EAE8F8E0F1
:101110000C94C5055C01962E7A01CE0101966C01F6
:1011200080E2F60111928A95E9F7F501B381890110
:1011300030E020E0712C812CA0E041E050E0F8018B
:10114000B3FD8591B3FF8191982F8F01811107C065
:1011500010E000E0C801A096EDE00C94E1058E35AA
:1011600019F42115310541F1A21713064CF48D3500
:1011700049F18D3229F4811006C0882483941DC062
:10118000882009F464C0E92FE695E695E695EC0D14
:10119000FD2DF11D892F8770BA0101C0660F8A9558
:1011A000EAF78081682B6083791651F0971510F467
:1011B0009F5FE9CF9150E7CFA1E02F5F3F4FBFCFB7
:1011C000812CFBCF882019F08E8180628E83AA2328
:1011D00059F0F6019E012F5D3F4F808180958083FD
:1011E0003196E217F307C9F788248394C5010E945A
:1011F000530A97FD16C0E82FE695E695E695EC0DA7
:10120000FD2DF11D208130E0AC014770552702C053
:10121000359527954A95E2F720FD06C0B5010E9455
:101220008F0A882069F094CFE114F10429F0F701C6
:101230008083C70101967C019A94812C9110D6CFAE
:10124000E114F10409F486CFF701108283CFE82F6F
:10125000E695E695E695EC0DFD2DF11D982F97701E
:10126000BA0101C0660F9A95EAF79081692B6083F5
:10127000782EA3CFB0E0A0E0E0E4F9E00C94C30541
:101280006C01EB015A01FC0117821682512CF60108
:10129000E380FE01E3FC8591E3FE8191182FEF01CD
:1012A0008823E9F090E00E943F0A892B21F0C601D3
:1012B0000E94DE07ECCF153241F4FE01E3FC1591EC
:1012C000E3FE1191EF01153269F4C6010E94530A41
:1012D00097FD8EC01817D9F2B6010E948F0A852D8E
:1012E00090E08AC000E01A3231F4E3FC1591E3FE8D
:1012F0001191EF0101E0F12C20ED210F2A3048F18E
:1013000001FF37C0FF2059F31836B1F11C3609F43C
:101310003DC0112321F3612F70E08AE691E00E9425
:10132000480A892BE1F2912C812C00FD06C0F501C1
:1013300080809180C50102965C011E3679F5F60128
:101340004681578170E060E0202FC4010E94AF0702
:101350009ECF02606F2D70E090E080E040E20E943E
:10136000BB07F62EFE01E3FC1591E3FE1191EF01A0
:10137000C3CFFF24FA94C8CFFE01E3FC1591E3FE2E
:101380001191EF01183609F0C4CF08600460FE0126
:10139000E3FC1591E3FE1191EF01BBCF1336C1F4CD
:1013A00001FD02C0FF24F394C6010E94530A97FD79
:1013B0001FC08114910429F0F4018083C4010196B7
:1013C0004C01FA94F110F0CF00FD61CF53945FCF40
:1013D0001B35B9F49E01A4016F2DC6010E9484083B
:1013E000EC01892B89F7F6018381807309F477CFAB
:1013F0008FEF9FEF511073CFCDB7DEB7EFE00C94B6
:10140000DF05C6010E94DE0797FDF2CF1F36A9F166
:1014100030F4143641F0193639F0006405C0133742
:10142000B9F01537D1F70062202FA4016F2DC60146
:101430000E94F7078111C8CFD6CF8114910429F0FB
:10144000F4016082C40101964C01FA94FF2071F00E
:10145000C6010E94530A3C0197FD08C00E943F0A42
:10146000892B59F3B601C3010E948F0A811491049C
:1014700009F4AACFF4011082A7CF0061D5CF911152
:101480000C94A70A803219F089508550C8F7089546
:10149000FC010590061621F00020D9F7C00108953F
:1014A0003197CF010895CF93DF93EC012B8120FF7B
:1014B0001AC026FF0CC02F7B2B838E819F81019643
:1014C0009F838E838A8190E0DF91CF91089522FFE0
:1014D00018C0E881F9818081082E000C990B0097D3
:1014E00029F420622B838FEF9FEFEECF3196F983A3
:1014F000E8832E813F812F5F3F4F3F832E839927C3
:10150000E3CFEA85FB85099597FFF3CF2B81019601
:1015100021F080E2822B8B83E6CF80E1FBCFFB01C1
:10152000238120FF11C026FD0FC08F3F980771F067
:1015300082832F7D206423832681378121503109C6
:1015400037832683992708958FEF9FEF0895992772
:0815500088270895F894FFCFED
:101558000D0A2B434D47523A202252454320554EFF
:1015680052454144222C222B39383933353532380B
:1015780032313234222C22222C22323032352F3092
:10158800352F31392031303A33343A30382B313431
:10159800220D0A48656C6C6F206D79206E616D654F
:1015A80020697320614B6152655A610D0A0D0A4F1B
:1015B8004B0D0A002D2D2D2D2D2D2D2D2D2D2D2DA5
:1015C8002D2D2D2D2D2D2D2D2D2D2D2D2D2D000D90
:1015D8000A2B434D47523A2022252A5B5E225D2280
:1015E8002C22255B5E225D222C22222C22252A5BBE
:1015F8005E225D220D0A255B5E0D5D0D0A005353C8
:1016080043414E463A2025640050686F6E654E751A
:101618006D6265723A2000496E636F6D6554657836
:041628003A20000064
:00000001FF
