:100000000C94B5000C94D2000C94D2000C94D20045
:100010000C94D2000C94D2000C94D2000C94D20018
:100020000C94D2000C94D2000C94D2000C94D20008
:100030000C94D2000C94D2000C9439010C94D20090
:100040000C94D2000C94D2000C94D2000C94D200E8
:100050000C94D2000C94D2000C94D2000C94D200D8
:100060000C94D2000C94D2006E616E00696E660032
:1000700000407A10F35A00A0724E18090010A5D45F
:10008000E80000E87648170000E40B54020000CABC
:100090009A3B000000E1F505000080969800000002
:1000A00040420F000000A086010000001027000061
:1000B0000000E803000000006400000000000A00E7
:1000C000000000000100000000002C76D888DC67EA
:1000D0004F0823DFC1DFAE59E1B1B796E5E3E45342
:1000E000C63AE651997696E8E6C28426EB898C9B5F
:1000F00062ED407C6FFCEFBC9C9F40F2BAA56FA5FF
:10010000F490055A2AF75C936B6CF9676DC11BFC80
:10011000E0E40D47FEF520E6B500D0ED902E03009B
:10012000943577050080841E080000204E0A0000E8
:1001300000C80C333333330F986E12831141EF8DA7
:100140002114893BE65516CFFEE6DB18D1844B38E7
:100150001BF77C1D901DA4BBE424203284725E2218
:100160008100C9F124ECA1E53D2711241FBECFEF8A
:10017000D8E0DEBFCDBF11E0A0E0B1E0E8E3F0E100
:1001800002C005900D92A434B107D9F721E0A4E490
:10019000B1E001C01D92AA34B207E1F70E945E01EE
:1001A0000C941A080C940000662351F1289A87FFDA
:1001B00029C05F9A86FF28C05E9A85FF27C05D9A96
:1001C00084FF26C05C9A299AEFE3FFE13197F1F7AB
:1001D00000C00000299883FF1DC05F9A82FF1CC0E9
:1001E0005E9A81FF1BC05D9A80FF1AC05C9A299AB3
:1001F0008FE39FE10197F1F700C00000299808956F
:100200002898D5CF5F98D6CF5E98D7CF5D98D8CFB6
:100210005C98D9CF5F98E2CF5E98E3CF5D98E4CF4A
:100220005C98E5CFCF93DF93EC018991811103C0F6
:10023000DF91CF91089561E00E94D4008091450143
:100240008F5F80934501803181F7809144018F5FFA
:100250008093440110924501823039F41092440198
:1002600080E860E00E94D400E0CF8130C9F780ECE4
:10027000F8CF1F920F920FB60F9211248F939F9376
:10028000AF93BF938091460190914701A09148019F
:10029000B09149010196A11DB11D80934601909333
:1002A0004701A0934801B0934901BF91AF919F913D
:1002B0008F910F900FBE0F901F901895CF93DF93E3
:1002C000CDB7DEB761970FB6F894DEBF0FBECDBFD6
:1002D00084B58E7F84BD84B5826084BD85B5877FFB
:1002E00085BD85B5816085BD85B5826085BD85B5D7
:1002F0008B7F85BD80916E00826080936E00A99A8D
:1003000089EF87BD8FB780688FBF8FE59AEE019721
:10031000F1F700C00000549A559A569A579A209ABD
:10032000219A229A2A9A60E083E30E94D4008FE106
:100330009EE40197F1F700C0000060E082E30E94B4
:10034000D4008FE19EE40197F1F700C0000060E067
:1003500088E20E94D4008FE19EE40197F1F700C08B
:10036000000060E08CE00E94D40060E086E00E9423
:10037000D40060E081E00E94D40010924501109208
:10038000440180E391E00E941201389A399A3A9A26
:10039000429ADD24D39482E0C82E98E3E92E91E0BE
:1003A000F92E8E010F5F1F4F8091460190914701FA
:1003B000A0914801B0914901409100015091010183
:1003C0006091020170910301841B950BA60BB70B82
:1003D0008093040190930501A0930601B093070157
:1003E000409108015091090160910A0170910B013F
:1003F000481759076A077B0798F480914601909146
:100400004701A0914801B091490180930001909368
:100410000101A0930201B093030188B18D2588B931
:100420008091460190914701A0914801B091490106
:1004300040910C0150910D0160910E0170910F01DE
:10044000841B950BA60BB70B8093100190931101A1
:10045000A0931201B0931301409114015091150122
:100460006091160170911701481759076A077B07B9
:1004700098F48091460190914701A0914801B09174
:10048000490180930C0190930D01A0930E01B0934C
:100490000F0188B18C2588B9809146019091470160
:1004A000A0914801B0914901409118015091190162
:1004B00060911A0170911B01841B950BA60BB70B61
:1004C00080931C0190931D01A0931E01B0931F0106
:1004D00040912001509121016091220170912301EE
:1004E000481759076A077B0788F480914601909165
:1004F0004701A0914801B091490180931801909360
:100500001901A0931A01B0931B01429880914601F2
:1005100090914701A0914801B09149014091240177
:10052000509125016091260170912701841B950B44
:10053000A60BB70B8093280190932901A0932A0161
:10054000B0932B0140912C0150912D0160912E010F
:1005500070912F0184179507A607B70708F424CFD9
:100560008091460190914701A0914801B0914901C5
:100570008093240190932501A0932601B093270135
:100580008091460190914701A0914801B0914901A5
:10059000BF93AF939F938F93FF92EF921F930F930D
:1005A0000E94F707109245011092440160E080E834
:1005B0000E94D400C8010E9412010FB6F894DEBF59
:1005C0000FBECDBFF1CEAFE0B0E0E9EEF2E00C94AB
:1005D00044066C011B015A01FC01178216828381BB
:1005E00081FF48C39E012F5F3F4F4901F601938170
:1005F000F10193FD859193FF81911F01882309F4F7
:10060000E7C2853239F493FD859193FF81911F01F3
:10061000853239F4B60190E00E9469073501530133
:10062000E5CFF12C512C00E0003238F48B3209F187
:1006300090F48032F9F0833209F107FD34C020EDE7
:10064000280F2A3020F506FF1BC0FAE0FF9E200D80
:100650001124F22E05C08D3279F0803371F70160DC
:10066000F10193FD859193FF81911F018111DCCFF1
:100670001AC002600460F4CF0860F2CF0061F0CFCE
:100680003AE0539E200D1124522E0062E9CF8E32A3
:1006900021F406FD9DC20064E3CF8C3611F400689E
:1006A000DFCF8836E9F29BEB980F933008F05FC0FC
:1006B0000061805E06FD02C046E0F42E102F1F731D
:1006C000853609F05BC0106417FF61C08F2D9BE376
:1006D0009F1508F48BE344244394480E27E035012A
:1006E000F4E06F0E711CF50160817181828193814C
:1006F000042DA4010E947B065C01F981FC87F0FFB8
:1007000003C00DE2F3FF07C00BE211FD04C0012F8F
:10071000047012FD00E22C852C70E22E09F457C003
:100720000111ABC2F3E0E12CF515A0F483E0E52C58
:10073000E81A13FD08C0B60180E290E00E94690744
:10074000EA94E110F8CF002329F0B601802F90E061
:100750000E9469073C8528E6A22E20E0B22E33FDD8
:1007600004C09CE6A92E90E0B92E107122C09BE92E
:10077000980F933008F033C10F7E9CCF863611F46A
:100780001068A2CFFF2009F49FCFFA949DCFE7E035
:100790002F2DEF1518F427E037E0F32E412C9FCFD3
:1007A00011118052B60190E00E9469078FEFA81ADC
:1007B000B80AF50184918111F3CFEE2009F42FCF0F
:1007C000B60180E290E00E946907EA94F6CF17FF35
:1007D0006FC04A0CFC85F4FF04C08A81813309F4A0
:1007E0004A9414140CF086C028E0241510F488E014
:1007F000482E85E090E017FF06C0C501B7FE02C095
:1008000090E080E0019601110196FF2031F02F2D3C
:1008100030E02F5F3F4F820F931F5816190619F0D3
:1008200014F0E52CE81A812F897011F4E11067C0EB
:10083000002329F0B601802F90E00E94690713FD84
:1008400002C0E11063C017FF7CC08501B7FE02C083
:1008500010E000E0C501841991092C016F2D70E0B2
:10086000EE27FF27E61BF70BFF87EE870F3F1007EA
:1008700029F4B6018EE290E00E946907A016B10645
:100880000CF44BC0401651060CF047C0F501E01BBC
:10089000F10BE80DF91D8181015011092E853F856D
:1008A00002171307E4F1B60190E00E946907DECF5A
:1008B00016FD9FCFEF2DF0E0EA15FB0534F03CEF7D
:1008C000A3163FEFB3060CF010683296E80DF91D41
:1008D00001C0FA94FF2019F082918033D1F317FF01
:1008E00088CF442443944F0CFA141B0431F02CF0AD
:1008F000FA187FCF442443947CCFF12C7ACFB601F1
:1009000080E290E00E946907EA9490CFB60180E30C
:1009100090E00E946907EA9494CF80E3BDCFA016CF
:10092000B10641F49A81963350F4953319F43C851D
:1009300034FF05C0B60190E00E9469073ECF81E315
:10094000F9CF8A81813319F09C859F7E9C87B601FF
:1009500090E00E946907FF20A9F0B6018EE290E0C6
:100960000E946907F394F394E2E001E00E0FE80DB2
:10097000F92DF11D8081B60190E00E946907E02FFA
:100980000F11F3CF85E690E014FF02C085E490E0FC
:10099000B6010E946907B7FC06C0A114B104C1F4F6
:1009A000EC85E4FF15C0B194A194B1088DE2B601C5
:1009B00090E00E94690780E32AE0A216B10454F493
:1009C000B60190E00E946907B601C501C096B4CF98
:1009D0008BE2EDCF8F5FFAE0AF1AB108EDCF83362F
:1009E000C9F0833771F1833509F05BC03501F2E05E
:1009F0006F0E711CF501A080B1806F2D70E006FDB7
:100A000002C06FEF7FEFC5010E9453079D878C875F
:100A100000680DC0350132E0630E711CF501808164
:100A2000898321E030E03D872C8754010F7703FD57
:100A300006C02C853D855216130609F0A8F4E52C56
:100A40002BC0350132E0630E711CF501A080B1802E
:100A50006F2D70E006FD02C06FEF7FEFC5010E94B1
:100A60005E079D878C87E2CFB60180E290E00E940E
:100A700069075A94DECFF50107FD859107FF819143
:100A80005F01B60190E00E946907E110EA948C854D
:100A90009D8501979D878C87EC85FD85EF2B59F708
:100AA0008CCE843619F0893609F074C0350107FF01
:100AB00066C0F4E06F0E711CF50160817181828166
:100AC0009381102F1F7697FF08C0909580957095A1
:100AD00061957F4F8F4F9F4F10682AE030E0A4014F
:100AE0000E949907A82EA818BA2C012F16FF0AC039
:100AF0000E7FAF1438F414FF04C012FD02C0012FA2
:100B00000E7EBF2C04FF8EC0FE01EA0DF11D808118
:100B1000803309F080C0097EF02FF870EF2E03FDBE
:100B200090C000FF8AC0FA2CB51410F4F50CFB1825
:100B300004FF8DC0B60180E390E00E94690702FFC8
:100B400009C088E790E001FF02C088E590E0B601A7
:100B50000E946907AF1408F486C0AA940A2D10E019
:100B60000F5F1F4F080D191DF80182918F01B6010B
:100B700090E00E94690780169106B1F71ECEF2E060
:100B80006F0E711CF50160817181072E000C880BBE
:100B9000990B97CF102F8537A9F41F7E2AE030E0FC
:100BA000350117FF2FC0F4E06F0E711CF501608155
:100BB000718182819381A4010E949907A82EA818AF
:100BC0001F7792CF197F8F36D1F048F4883591F096
:100BD000F601868197812F96E2E10C9460068037BA
:100BE00039F08837A9F714FD146020E130E0D8CF40
:100BF0001061F9CF04FD166020E132E0D1CF28E08A
:100C000030E0CECFF2E06F0E711CF5016081718192
:100C100090E080E0D0CF02FD02C0B3947DCFB394CA
:100C2000B3947ACF802F867809F476CFF6CFB601C9
:100C300080E290E00E946907B394B514C0F3E12C00
:100C400077CFE52CEB18B51408F472CFF8CF802FCE
:100C5000867809F47FCF8BE201FF80E207FD8DE209
:100C6000B60190E075CFB60180E390E00E9469077D
:100C7000FA9470CF8FEF9FEFAECF24E0E12C2515D3
:100C800008F063CD84E053CD2F923F924F925F9254
:100C90006F927F928F929F92AF92BF92CF92DF928C
:100CA000EF92FF920F931F93CF93DF93CDB7DEB7F1
:100CB000CA1BDB0B0FB6F894DEBF0FBECDBF099485
:100CC0002A88398848885F846E847D848C849B84DC
:100CD000AA84B984C884DF80EE80FD800C811B81EA
:100CE000AA81B981CE0FD11D0FB6F894DEBF0FBE19
:100CF000CDBFED010895283008F027E03327DA0151
:100D0000990F311D87FD916000966105710539F4D9
:100D100032602E5F3D9330E32A95E1F708959F3FBF
:100D200030F080387105610509F03C5F3C5F3D9310
:100D3000913008F08068911DDF93CF931F930F933C
:100D4000FF92EF92192F987F9695E92F9695969599
:100D5000E90FFF27E653FF4F99273327EE24FF249F
:100D6000A701E70105900894079428F4360FE71EC1
:100D7000F81E491F511D660F771F881F991F069483
:100D8000A1F70590079428F4E70EF81E491F561F97
:100D9000C11D770F881F991F661F0694A1F7059044
:100DA000079428F4F80E491F561FC71FD11D880F3E
:100DB000991F661F771F0694A1F70590079420F4EA
:100DC000490F561FC71FD81F990F661F771F881F0F
:100DD0000694A9F784911095177041F0D695C795A0
:100DE00057954795F794E7941A95C1F7E0E7F0E037
:100DF00068941590159135916591959105907FE2D4
:100E00007395E118F10A430B560BC90BD009C0F7D3
:100E1000E10CF11E431F561FC91FD01D7EF4703315
:100E200011F48A95E6CFE894015030F0080F0AF4E7
:100E30000027021708F4202F2395022F7A3328F079
:100E400079E37D932A95E9F710C07D932A9589F679
:100E5000069497956795379517951794E118F10AB9
:100E6000430B560BC90BD00998F023957E917395CF
:100E70007A3308F070E37C932013B8F77E917061A9
:100E80007D9330F0839571E37D9370E32A95E1F7CC
:100E90001124EF90FF900F911F91CF91DF9199272F
:100EA00087FD90950895FC010590615070400110F8
:100EB000D8F7809590958E0F9F1F0895FC01615083
:100EC000704001900110D8F7809590958E0F9F1F6C
:100ED00008950F931F93CF93DF93182F092FEB01E2
:100EE0008B8181FD09C01FEF0FEF812F902FDF91C4
:100EF000CF911F910F91089582FF14C02E813F81E1
:100F00008C819D81281739073CF4E881F981CF0154
:100F100001969983888310838E819F8101969F8398
:100F20008E83E3CFE885F985812F0995892BA1F37D
:100F3000DACFFA01AA27283051F1203181F1E89463
:100F40006F936E7F6E5F7F4F8F4F9F4FAF4FB1E0BC
:100F50003ED0B4E03CD0670F781F891F9A1FA11DB7
:100F6000680F791F8A1F911DA11D6A0F711D811DB8
:100F7000911DA11D20D009F468943F912AE0269F7D
:100F800011243019305D3193DEF6CF010895462FDC
:100F90004770405D4193B3E00FD0C9F7F6CF462FBD
:100FA0004F70405D4A3318F0495D31FD4052419326
:100FB00002D0A9F7EACFB4E0A695979587957795E3
:100FC0006795BA95C9F700976105710508959B016A
:100FD000AC010A2E06945795479537952795BA95F3
:100FE000C9F7620F731F841F951FA01D0895AEE0FF
:100FF000B0E0EDEFF7E00C9452060D891E8986E013
:101000008C831A8309838FEF9FE79E838D83AE01C4
:10101000475E5F4F6F89788DCE0101960E94E30293
:101020002F813885020F131FF80110822E96E4E0FD
:081030000C946E06F894FFCF4A
:101038000000000000000000E803000000000000BD
:10104800000000005E010000000000000000000039
:101058008813000000000000000000006400000089
:10106800614B6152655A61006D69696C69733D2510
:041078006C640000A4
:00000001FF
