:100000000C94B5000C94C7000C94C7000C94C70066
:100010000C94C7000C94C7000C94C7000C94C70044
:100020000C94C7000C94C7000C94C7000C94C70034
:100030000C94C7000C94C7000C94C7000C94C70024
:100040000C94C7000C94C7000C94C7000C94C70014
:100050000C94C7000C94C7000C94C7000C94C70004
:100060000C94C7000C94C7006E616E00696E660048
:1000700000407A10F35A00A0724E18090010A5D45F
:10008000E80000E87648170000E40B54020000CABC
:100090009A3B000000E1F505000080969800000002
:1000A00040420F000000A086010000001027000061
:1000B0000000E803000000006400000000000A00E7
:1000C000000000000100000000002C76D888DC67EA
:1000D0004F0823DFC1DFAE59E1B1B796E5E3E45342
:1000E000C63AE651997696E8E6C28426EB898C9B5F
:1000F00062ED407C6FFCEFBC9C9F40F2BAA56FA5FF
:10010000F490055A2AF75C936B6CF9676DC11BFC80
:10011000E0E40D47FEF520E6B500D0ED902E03009B
:10012000943577050080841E080000204E0A0000E8
:1001300000C80C333333330F986E12831141EF8DA7
:100140002114893BE65516CFFEE6DB18D1844B38E7
:100150001BF77C1D901DA4BBE424203284725E2218
:100160008100C9F124ECA1E53D2711241FBECFEF8A
:10017000D8E0DEBFCDBF21E0A0E0B1E001C01D921C
:10018000A130B207E1F70E94C9000C9452080C9408
:100190000000809180008E7F80938000809180009D
:1001A00082608093800080918100877F80938100AE
:1001B00080918100806180938100809181008E7F99
:1001C0008093810080918100826080938100809182
:1001D00081008B7F80938100809180008F7B809352
:1001E000800080918000806880938000219A80E266
:1001F0009EE4909387008093860080E197E290933D
:10020000890080938800CFE3D2E001E415E083E425
:10021000E82E88E0F82E94EBD92ED0938900C09375
:1002200088002FEF83ED90E3215080409040E1F76C
:1002300000C0000010938900009388002FEF83ED29
:1002400090E3215080409040E1F700C00000F09220
:100250008900E09288002FEF83ED90E321508040E9
:100260009040E1F700C000001093890000938800DF
:100270002FEF83ED90E3215080409040E1F700C0E4
:100280000000D0938900C09388002FEF83ED90E3A6
:10029000215080409040E1F700C000001092000122
:1002A00060910001643B68F1D0920001609100010F
:1002B000623008F4B2CF70E090E080E00E9459070D
:1002C00020E635EE48E051E40E94E50720E030ECFE
:1002D0004FE054E40E94BC060E94280770938900F6
:1002E000609388002FE788E391E0215080409040A0
:1002F000E1F700C00000809100018150809300016F
:10030000D5CF70E090E080E00E94590720E635EEFE
:1003100048E051E40E94E50720E030EC4FE054E46F
:100320000E94BC060E942807709389006093880091
:100330002FE788E391E0215080409040E1F700C032
:100340000000809100018F5F80930001A9CFAFE092
:10035000B0E0EDEAF1E00C9408056C011B015A01D4
:10036000FC0117821682838181FF48C39E012F5FA3
:100370003F4F4901F6019381F10193FD859193FF70
:1003800081911F01882309F4E7C2853239F493FD76
:10039000859193FF81911F01853239F4B60190E078
:1003A0000E942D0635015301E5CFF12C512C00E0C0
:1003B000003238F48B3209F190F48032F9F0833254
:1003C00009F107FD34C020ED280F2A3020F506FF83
:1003D0001BC0FAE0FF9E200D1124F22E05C08D32C5
:1003E00079F0803371F70160F10193FD859193FFFE
:1003F00081911F018111DCCF1AC002600460F4CF2B
:100400000860F2CF0061F0CF3AE0539E200D112436
:10041000522E0062E9CF8E3221F406FD9DC20064A7
:10042000E3CF8C3611F40068DFCF8836E9F29BEB1E
:10043000980F933008F05FC00061805E06FD02C037
:1004400046E0F42E102F1F73853609F05BC0106450
:1004500017FF61C08F2D9BE39F1508F48BE34424A5
:100460004394480E27E03501F4E06F0E711CF5014E
:100470006081718182819381042DA4010E943F05D6
:100480005C01F981FC87F0FF03C00DE2F3FF07C0B8
:100490000BE211FD04C0012F047012FD00E22C8557
:1004A0002C70E22E09F457C00111ABC2F3E0E12C2D
:1004B000F515A0F483E0E52CE81A13FD08C0B60199
:1004C00080E290E00E942D06EA94E110F8CF00232C
:1004D00029F0B601802F90E00E942D063C8528E689
:1004E000A22E20E0B22E33FD04C09CE6A92E90E09F
:1004F000B92E107122C09BE9980F933008F033C1D8
:100500000F7E9CCF863611F41068A2CFFF2009F42D
:100510009FCFFA949DCFE7E02F2DEF1518F427E039
:1005200037E0F32E412C9FCF11118052B60190E09D
:100530000E942D068FEFA81AB80AF5018491811147
:10054000F3CFEE2009F42FCFB60180E290E00E94B5
:100550002D06EA94F6CF17FF6FC04A0CFC85F4FF16
:1005600004C08A81813309F44A9414140CF086C0C3
:1005700028E0241510F488E0482E85E090E017FF6D
:1005800006C0C501B7FE02C090E080E001960111EF
:100590000196FF2031F02F2D30E02F5F3F4F820F6B
:1005A000931F5816190619F014F0E52CE81A812F3C
:1005B000897011F4E11067C0002329F0B601802F83
:1005C00090E00E942D0613FD02C0E11063C017FFEA
:1005D0007CC08501B7FE02C010E000E0C5018419AF
:1005E00091092C016F2D70E0EE27FF27E61BF70B1A
:1005F000FF87EE870F3F100729F4B6018EE290E0E7
:100600000E942D06A016B1060CF44BC040165106F0
:100610000CF047C0F501E01BF10BE80DF91D8181DD
:10062000015011092E853F8502171307E4F1B60129
:1006300090E00E942D06DECF16FD9FCFEF2DF0E05B
:10064000EA15FB0534F03CEFA3163FEFB3060CF0C0
:1006500010683296E80DF91D01C0FA94FF2019F0D8
:1006600082918033D1F317FF88CF442443944F0CF9
:10067000FA141B0431F02CF0FA187FCF4424439471
:100680007CCFF12C7ACFB60180E290E00E942D065B
:10069000EA9490CFB60180E390E00E942D06EA94A0
:1006A00094CF80E3BDCFA016B10641F49A81963372
:1006B00050F4953319F43C8534FF05C0B60190E041
:1006C0000E942D063ECF81E3F9CF8A81813319F054
:1006D0009C859F7E9C87B60190E00E942D06FF209E
:1006E000A9F0B6018EE290E00E942D06F394F394F7
:1006F000E2E001E00E0FE80DF92DF11D8081B60159
:1007000090E00E942D06E02F0F11F3CF85E690E0D8
:1007100014FF02C085E490E0B6010E942D06B7FCEC
:1007200006C0A114B104C1F4EC85E4FF15C0B19476
:10073000A194B1088DE2B60190E00E942D0680E3FD
:100740002AE0A216B10454F4B60190E00E942D06EE
:10075000B601C501C096B4CF8BE2EDCF8F5FFAE052
:10076000AF1AB108EDCF8336C9F0833771F1833505
:1007700009F05BC03501F2E06F0E711CF501A0803D
:10078000B1806F2D70E006FD02C06FEF7FEFC501F5
:100790000E9417069D878C8700680DC0350132E0E6
:1007A000630E711CF5018081898321E030E03D8773
:1007B0002C8754010F7703FD06C02C853D8552160A
:1007C000130609F0A8F4E52C2BC0350132E0630EC6
:1007D000711CF501A080B1806F2D70E006FD02C094
:1007E0006FEF7FEFC5010E9422069D878C87E2CFC5
:1007F000B60180E290E00E942D065A94DECFF5010A
:1008000007FD859107FF81915F01B60190E00E948D
:100810002D06E110EA948C859D8501979D878C8734
:10082000EC85FD85EF2B59F78CCE843619F089368F
:1008300009F074C0350107FF66C0F4E06F0E711C4B
:10084000F5016081718182819381102F1F7697FF5E
:1008500008C090958095709561957F4F8F4F9F4F01
:1008600010682AE030E0A4010E945D06A82EA818B6
:10087000BA2C012F16FF0AC00E7FAF1438F414FFF4
:1008800004C012FD02C0012F0E7EBF2C04FF8EC0DB
:10089000FE01EA0DF11D8081803309F080C0097EE0
:1008A000F02FF870EF2E03FD90C000FF8AC0FA2CE5
:1008B000B51410F4F50CFB1804FF8DC0B60180E3ED
:1008C00090E00E942D0602FF09C088E790E001FF3A
:1008D00002C088E590E0B6010E942D06AF1408F42E
:1008E00086C0AA940A2D10E00F5F1F4F080D191D36
:1008F000F80182918F01B60190E00E942D068016CA
:100900009106B1F71ECEF2E06F0E711CF501608109
:100910007181072E000C880B990B97CF102F85370C
:10092000A9F41F7E2AE030E0350117FF2FC0F4E064
:100930006F0E711CF5016081718182819381A40128
:100940000E945D06A82EA8181F7792CF197F8F36B8
:10095000D1F048F4883591F0F601868197812F9681
:10096000E2E10C942405803739F08837A9F714FDAB
:10097000146020E130E0D8CF1061F9CF04FD16609B
:1009800020E132E0D1CF28E030E0CECFF2E06F0EB0
:10099000711CF5016081718190E080E0D0CF02FD93
:1009A00002C0B3947DCFB394B3947ACF802F86786E
:1009B00009F476CFF6CFB60180E290E00E942D06D2
:1009C000B394B514C0F3E12C77CFE52CEB18B51434
:1009D00008F472CFF8CF802F867809F47FCF8BE2AE
:1009E00001FF80E207FD8DE2B60190E075CFB60110
:1009F00080E390E00E942D06FA9470CF8FEF9FEF76
:100A0000AECF24E0E12C251508F063CD84E053CD72
:100A10002F923F924F925F926F927F928F929F920E
:100A2000AF92BF92CF92DF92EF92FF920F931F93FC
:100A3000CF93DF93CDB7DEB7CA1BDB0B0FB6F894AD
:100A4000DEBF0FBECDBF09942A88398848885F84ED
:100A50006E847D848C849B84AA84B984C884DF805E
:100A6000EE80FD800C811B81AA81B981CE0FD11D42
:100A70000FB6F894DEBF0FBECDBFED01089528304C
:100A800008F027E03327DA01990F311D87FD9160C7
:100A900000966105710539F432602E5F3D9330E3B5
:100AA0002A95E1F708959F3F30F080387105610580
:100AB00009F03C5F3C5F3D93913008F08068911DE8
:100AC000DF93CF931F930F93FF92EF92192F987F8D
:100AD0009695E92F96959695E90FFF27E653FF4FD8
:100AE00099273327EE24FF24A701E70105900894F6
:100AF000079428F4360FE71EF81E491F511D660F94
:100B0000771F881F991F0694A1F70590079428F472
:100B1000E70EF81E491F561FC11D770F881F991F2A
:100B2000661F0694A1F70590079428F4F80E491F54
:100B3000561FC71FD11D880F991F661F771F069468
:100B4000A1F70590079420F4490F561FC71FD81F1F
:100B5000990F661F771F881F0694A9F78491109537
:100B6000177041F0D695C79557954795F794E79438
:100B70001A95C1F7E0E7F0E068941590159135916A
:100B80006591959105907FE27395E118F10A430B09
:100B9000560BC90BD009C0F7E10CF11E431F561FBD
:100BA000C91FD01D7EF4703311F48A95E6CFE89406
:100BB000015030F0080F0AF40027021708F4202F24
:100BC0002395022F7A3328F079E37D932A95E9F76C
:100BD00010C07D932A9589F6069497956795379569
:100BE00017951794E118F10A430B560BC90BD0095E
:100BF00098F023957E9173957A3308F070E37C9397
:100C00002013B8F77E9170617D9330F0839571E386
:100C10007D9370E32A95E1F71124EF90FF900F91F7
:100C20001F91CF91DF91992787FD90950895FC0141
:100C30000590615070400110D8F7809590958E0F07
:100C40009F1F0895FC016150704001900110D8F77A
:100C5000809590958E0F9F1F08950F931F93CF93AC
:100C6000DF93182F092FEB018B8181FD09C01FEF46
:100C70000FEF812F902FDF91CF911F910F9108954A
:100C800082FF14C02E813F818C819D8128173907F6
:100C90003CF4E881F981CF01019699838883108320
:100CA0008E819F8101969F838E83E3CFE885F985AE
:100CB000812F0995892BA1F3DACFFA01AA272830D1
:100CC00051F1203181F1E8946F936E7F6E5F7F4F19
:100CD0008F4F9F4FAF4FB1E03ED0B4E03CD0670F95
:100CE000781F891F9A1FA11D680F791F8A1F911DE8
:100CF000A11D6A0F711D811D911DA11D20D009F438
:100D000068943F912AE0269F11243019305D319379
:100D1000DEF6CF010895462F4770405D4193B3E062
:100D20000FD0C9F7F6CF462F4F70405D4A3318F009
:100D3000495D31FD4052419302D0A9F7EACFB4E0BA
:100D4000A6959795879577956795BA95C9F7009772
:100D50006105710508959B01AC010A2E0694579513
:100D6000479537952795BA95C9F7620F731F841F6A
:100D7000951FA01D08955058BB27AA270E94D3068F
:100D80000C94AB070E949D0738F00E94A40720F046
:100D900039F49F3F19F426F40C949A070EF4E09569
:100DA000E7FB0C949407E92F0E94BC0758F3BA178D
:100DB000620773078407950720F079F4A6F50C9471
:100DC000DE070EF4E0950B2EBA2FA02D0B01B90112
:100DD00090010C01CA01A0011124FF27591B99F0B1
:100DE000593F50F4503E68F11A16F040A22F232FBD
:100DF000342F4427585FF3CF469537952795A7950D
:100E0000F0405395C9F77EF41F16BA0B620B730BB3
:100E1000840BBAF09150A1F0FF0FBB1F661F771F24
:100E2000881FC2F70EC0BA0F621F731F841F48F4D9
:100E3000879577956795B795F7959E3F08F0B0CF62
:100E40009395880F08F09927EE0F97958795089549
:100E50000E94C40788F09F5798F0B92F9927B7517F
:100E6000B0F0E1F0660F771F881F991F1AF0BA954E
:100E7000C9F714C0B13091F00E94DE07B1E00895C7
:100E80000C94DE07672F782F8827B85F39F0B93FB9
:100E9000CCF3869577956795B395D9F73EF4909501
:100EA0008095709561957F4F8F4F9F4F0895E8947F
:100EB00009C097FB3EF490958095709561957F4FA2
:100EC0008F4F9F4F9923A9F0F92F96E9BB27939550
:100ED000F695879577956795B795F111F8CFFAF460
:100EE000BB0F11F460FF1BC06F5F7F4F8F4F9F4F91
:100EF00016C0882311F096E911C0772321F09EE8EF
:100F0000872F762F05C0662371F096E8862F70E054
:100F100060E02AF09A95660F771F881FDAF7880F2E
:100F20009695879597F9089597F99F6780E870E0FF
:100F300060E008959FEF80EC089500240A9416164F
:100F4000170618060906089500240A9412161306B7
:100F5000140605060895092E0394000C11F4882345
:100F600052F0BB0F40F4BF2B11F460FF04C06F5F61
:100F70007F4F8F4F9F4F089557FD9058440F551F37
:100F800059F05F3F71F04795880F97FB991F61F00B
:100F90009F3F79F087950895121613061406551F82
:100FA000F2CF4695F1DF08C0161617061806991FEE
:100FB000F1CF86957105610508940895E894BB27E3
:100FC00066277727CB0197F908950E94F8070C94BC
:100FD000AB070E949D0738F00E94A40720F09523DC
:100FE00011F00C9494070C949A0711240C94DF07C9
:100FF0000E94BC0770F3959FC1F3950F50E0551FF9
:10100000629FF001729FBB27F00DB11D639FAA275D
:10101000F00DB11DAA1F649F6627B00DA11D661FAC
:10102000829F2227B00DA11D621F739FB00DA11DCD
:10103000621F839FA00D611D221F749F3327A00D87
:10104000611D231F849F600D211D822F762F6A2F23
:1010500011249F5750409AF0F1F088234AF0EE0F88
:10106000FF1FBB1F661F771F881F91505040A9F7B5
:101070009E3F510580F00C9494070C94DF075F3F6E
:10108000E4F3983ED4F3869577956795B795F795F1
:10109000E7959F5FC1F7FE2B880F911D9695879569
:0810A00097F90895F894FFCFC1
:00000001FF
