:100000000C94BB000C94D8000C94D8000C94D8002D
:100010000C94D8000C94D8000C94D8000C94D80000
:100020000C94D8000C94FE020C94D8000C94D800C8
:100030000C94D8000C94D8000C94D8000C94D800E0
:100040000C94D8000C94D8000C949E020C94D80008
:100050000C94D8000C94D8000C94D8000C94D800C0
:100060000C94D8000C94D8006E616E00696E660026
:1000700000407A10F35A00A0724E18090010A5D45F
:10008000E80000E87648170000E40B54020000CABC
:100090009A3B000000E1F505000080969800000002
:1000A00040420F000000A086010000001027000061
:1000B0000000E803000000006400000000000A00E7
:1000C000000000000100000000002C76D888DC67EA
:1000D0004F0823DFC1DFAE59E1B1B796E5E3E45342
:1000E000C63AE651997696E8E6C28426EB898C9B5F
:1000F00062ED407C6FFCEFBC9C9F40F2BAA56FA5FF
:10010000F490055A2AF75C936B6CF9676DC11BFC80
:10011000E0E40D47FEF520E6B500D0ED902E03009B
:10012000943577050080841E080000204E0A0000E8
:1001300000C80C333333330F986E12831141EF8DA7
:100140002114893BE65516CFFEE6DB18D1844B38E7
:100150001BF77C1D901DA4BBE424203284725E2218
:100160008100C9F124ECA1E53D276364696E6F70DD
:10017000737578585B0011241FBECFEFD8E0DEBF47
:10018000CDBF12E0A0E0B1E0E4E2FAE102C00590E8
:100190000D92A238B107D9F723E0A2E8B2E001C07E
:1001A0001D92A83CB207E1F70E942F030C94100D9A
:1001B0000C9400009091C00095FFFCCF8093C60086
:1001C0008091C00086FFFCCF0895E0EBF0E08081D5
:1001D0008E7F808380818D7F8083E1EBF0E0808162
:1001E000877F8083A0E7B0E08C918E7F8C938081A5
:1001F0008E7F808380818D7F808380818B7F8083D1
:100200001092B2000895E8E8F2E080E491E0DF01A6
:100210009C011D9221503040E1F71092B2000E94E3
:10022000E5001092870210928602109285021092C9
:1002300084020895EF92FF920F931F93CF93DF9361
:10024000EC018B017A010E9403018881882349F027
:10025000899181112BC08DE00E94DA008AE00E9412
:10026000DA0090E080E020918502222311F1B801AC
:1002700088E892E00E94BF09D0E0C0E0892B61F4D9
:1002800060E071E088E892E00E94BF09C1E0D0E040
:10029000892B11F4C2E0D0E00E940301CE01DF916E
:1002A000CF911F910F91FF90EF9008950E94DA0077
:1002B000CFCF0196E816F906D0F2EFE9FFE03197CB
:1002C000F1F700C00000CFCF662351F1409A87FFBD
:1002D00029C0439A86FF28C05E9A85FF27C0429AAC
:1002E00084FF26C05D9A419AEFE3FFE13197F1F771
:1002F00000C00000419883FF1DC0439A82FF1CC0CC
:100300005E9A81FF1BC0429A80FF1AC05D9A419A93
:100310008FE39FE10197F1F700C000004198089535
:100320004098D5CF4398D6CF5E98D7CF4298D8CFB4
:100330005D98D9CF4398E2CF5E98E3CF4298E4CF5F
:100340005D98E5CF60E081E00E9464011092830235
:10035000109282020895CF93DF93EC01899181116D
:1003600003C0DF91CF91089561E00E946401809104
:1003700083028F5F80938302803181F780918202B4
:100380008F5F8093820210928302823039F4109240
:10039000820280E860E00E946401E0CF8130C9F70A
:1003A00080ECF8CFCF92DF92EF92FF920F931F93E2
:1003B000CF93DF93CDB7DEB7C051D1400FB6F894DD
:1003C000DEBF0FBECDBF0E9403014CE251E069E4E5
:1003D00072E086E091E00E941A01809185028823F4
:1003E000E1F38E010F5F1F4F1F930F936E012DEFEF
:1003F000C21A2EEFD20ADF92CF9280E191E09F9352
:100400008F9388E892E09F938F930E94FC097C0170
:100410000FB6F894DEBF0FBECDBF92E0E9128BC0DD
:100420000E94A201FF24FF92EF928FE391E09F933D
:100430008F937E0122EFE20EF11CFF92EF920E9459
:10044000D909C7010E94AB018FEF91E12AE78150E2
:1004500090402040E1F700C000000E94A2011092ED
:1004600083021092820260E080E80E946401C6016B
:100470000E94AB018FEF91E12AE78150904020402C
:10048000E1F700C000000E94A201109283021092C6
:10049000820260E080E80E946401C8010E94AB0112
:1004A0006AE471E0C8010E94BF090F900F900F909D
:1004B0000F900F900F90892BB9F0289829982A98BF
:1004C0000E94030190E080E0C05FDE4F0FB6F89419
:1004D000DEBF0FBECDBFDF91CF911F910F91FF9077
:1004E000EF90DF90CF90089566E571E0C8010E941B
:1004F000BF09892B19F0289A299AE1CF61E671E0AA
:10050000C8010E94BF09892B21F0289A299A2A9AAA
:10051000D7CF6DE671E0C8010E94BF09892B11F0A9
:100520002898EACF69E771E0C8010E94BF09892BCA
:1005300039F22898EBCF81E090E0C6CF1F920F925E
:100540000FB60F9211248F939F93EF93FF93109206
:1005500084028091C0009091C00082958F70969522
:1005600096959695892B90918602892B8170809320
:1005700084029091C60080918702811126C08091EB
:10058000B0008E7F8093B0008091B0008D7F80930B
:10059000B0008091B100877F8093B100B89A8091BC
:1005A00070008160809370001092B2008091B10061
:1005B0008E7F8093B1008091B1008D7F8093B100D8
:1005C0008091B10084608093B10080918402811198
:1005D0000CC01092B200E091870281E08E0F8093F0
:1005E0008702F0E0E857FD4F9083FF91EF919F91D4
:1005F0008F910F900FBE0F901F9018951F920F9222
:100600000FB60F9211242F933F934F935F936F93E5
:100610007F938F939F93AF93BF93EF93FF93E0915B
:10062000870281E08E0F80938702F0E0E857FD4F4C
:10063000108281E0809385020E94E500FF91EF9196
:10064000BF91AF919F918F917F916F915F914F91EA
:100650003F912F910F900FBE0F901F901895CF9341
:10066000DF93CDB7DEB769970FB6F894DEBF0FBE44
:10067000CDBF8FE59AEE0197F1F700C00000559AC3
:100680003A9A569A3B9A389A399A579A5F9A60E002
:1006900083E30E946401EFE1FEE43197F1F700C0CB
:1006A000000060E082E30E9464018FE19EE4019714
:1006B000F1F700C0000060E088E20E946401EFE111
:1006C000FEE43197F1F700C0000060E08CE00E948A
:1006D000640160E086E00E94640160E081E00E94C5
:1006E000640110928302109282028091C2008F777F
:1006F0008093C2008091C2008F7B8093C200809162
:10070000C2008F7D8093C2008091C2008F7E809353
:10071000C2008091C200877F8093C2008091C10097
:100720008B7F8093C1008091C20084608093C2005F
:100730008091C20082608093C2008091C100886075
:100740008093C1008091C10080618093C10080913D
:10075000C10080688093C1008091C0008260809356
:10076000C0001092C50080E18093C4000E94030184
:100770008FB780688FBF86E891E00E94AB01209A16
:10078000219A229A4CE251E06EE371E08EE891E00A
:100790000E941A010E94A20189E991E00E94AB0126
:1007A00040E25EE465EA71E08EE391E00E941A01A6
:1007B000892B09F07CC040E25EE469EA71E08EE3D7
:1007C00091E00E941A01892B09F071C040E25EE4B9
:1007D0006FEA71E08EE391E00E941A01892B09F023
:1007E00066C040E25EE465EB71E08EE391E00E945A
:1007F0001A01892B09F05BC040E25EE460EC71E015
:100800008EE391E00E941A01892B09F050C00E94EA
:10081000A2018AEC91E00E94AB014CE251E065ED4F
:1008200071E0CB010E941A01892B09F040C04CE213
:1008300051E069E472E08EE391E00E941A014CE21B
:1008400051E069E472E08AED91E00E941A01892B7F
:1008500071F54CE251E069E472E084EE91E00E94AF
:100860001A01892B21F54CE251E069E472E08EEE29
:1008700091E00E941A01892BD1F44CE251E069E425
:1008800072E08CEF91E00E941A01892B81F44CE216
:1008900051E069E472E08FE092E00E941A01892B36
:1008A00031F40E94A2018BE192E00E94AB015398C7
:1008B00004E212E092E3E92E92E0F92ECE010196D5
:1008C0006C014B991DC04B9BFECF1F930F93FF9262
:1008D000EF92DF92CF920E94D9094CE251E06FE390
:1008E00072E0C6010E941A010F900F900F900F90B6
:1008F0000F900F908130910519F188F0029729F13E
:10090000809185028111DDCF6BE772E088E892E08B
:100910000E94BF09892BA9F20E94D201D2CF81E4A3
:1009200092E00E94AB018CE4A82E82E0B82EF50183
:1009300081915F0181110CC08AE10E94DA00E0CF51
:100940008FE592E00E94AB01DBCF8BE692E0FACF1D
:100950000E94DA00ECCFAFE0B0E0E1EBF4E00C9401
:100960000C086C011B015A01FC011782168283815D
:1009700081FF48C39E012F5F3F4F4901F6019381DC
:10098000F10193FD859193FF81911F01882309F463
:10099000E7C2853239F493FD859193FF81911F0160
:1009A000853239F4B60190E00E94310935015301D6
:1009B000E5CFF12C512C00E0003238F48B3209F1F4
:1009C00090F48032F9F0833209F107FD34C020ED54
:1009D000280F2A3020F506FF1BC0FAE0FF9E200DED
:1009E0001124F22E05C08D3279F0803371F7016049
:1009F000F10193FD859193FF81911F018111DCCF5E
:100A00001AC002600460F4CF0860F2CF0061F0CF3A
:100A10003AE0539E200D1124522E0062E9CF8E320F
:100A200021F406FD9DC20064E3CF8C3611F400680A
:100A3000DFCF8836E9F29BEB980F933008F05FC068
:100A40000061805E06FD02C046E0F42E102F1F7389
:100A5000853609F05BC0106417FF61C08F2D9BE3E2
:100A60009F1508F48BE344244394480E27E0350196
:100A7000F4E06F0E711CF5016081718182819381B8
:100A8000042DA4010E9443085C01F981FC87F0FF5A
:100A900003C00DE2F3FF07C00BE211FD04C0012FFC
:100AA000047012FD00E22C852C70E22E09F457C070
:100AB0000111ABC2F3E0E12CF515A0F483E0E52CC5
:100AC000E81A13FD08C0B60180E290E00E943109E7
:100AD000EA94E110F8CF002329F0B601802F90E0CE
:100AE0000E9431093C8528E6A22E20E0B22E33FD7B
:100AF00004C09CE6A92E90E0B92E107122C09BE99B
:100B0000980F933008F033C10F7E9CCF863611F4D6
:100B10001068A2CFFF2009F49FCFFA949DCFE7E0A1
:100B20002F2DEF1518F427E037E0F32E412C9FCF3F
:100B300011118052B60190E00E9431098FEFA81A7E
:100B4000B80AF50184918111F3CFEE2009F42FCF7B
:100B5000B60180E290E00E943109EA94F6CF17FFD7
:100B60006FC04A0CFC85F4FF04C08A81813309F40C
:100B70004A9414140CF086C028E0241510F488E080
:100B8000482E85E090E017FF06C0C501B7FE02C001
:100B900090E080E0019601110196FF2031F02F2DA9
:100BA00030E02F5F3F4F820F931F5816190619F040
:100BB00014F0E52CE81A812F897011F4E11067C058
:100BC000002329F0B601802F90E00E94310913FD27
:100BD00002C0E11063C017FF7CC08501B7FE02C0F0
:100BE00010E000E0C501841991092C016F2D70E01F
:100BF000EE27FF27E61BF70BFF87EE870F3F100757
:100C000029F4B6018EE290E00E943109A016B106E7
:100C10000CF44BC0401651060CF047C0F501E01B28
:100C2000F10BE80DF91D8181015011092E853F85D9
:100C300002171307E4F1B60190E00E943109DECFFC
:100C400016FD9FCFEF2DF0E0EA15FB0534F03CEFE9
:100C5000A3163FEFB3060CF010683296E80DF91DAD
:100C600001C0FA94FF2019F082918033D1F317FF6D
:100C700088CF442443944F0CFA141B0431F02CF019
:100C8000FA187FCF442443947CCFF12C7ACFB6015D
:100C900080E290E00E943109EA9490CFB60180E3AF
:100CA00090E00E943109EA9494CF80E3BDCFA01672
:100CB000B10641F49A81963350F4953319F43C858A
:100CC00034FF05C0B60190E00E9431093ECF81E3B8
:100CD000F9CF8A81813319F09C859F7E9C87B6016C
:100CE00090E00E943109FF20A9F0B6018EE290E069
:100CF0000E943109F394F394E2E001E00E0FE80D55
:100D0000F92DF11D8081B60190E00E943109E02F9C
:100D10000F11F3CF85E690E014FF02C085E490E068
:100D2000B6010E943109B7FC06C0A114B104C1F498
:100D3000EC85E4FF15C0B194A194B1088DE2B60131
:100D400090E00E94310980E32AE0A216B10454F435
:100D5000B60190E00E943109B601C501C096B4CF3A
:100D60008BE2EDCF8F5FFAE0AF1AB108EDCF83369B
:100D7000C9F0833771F1833509F05BC03501F2E0CA
:100D80006F0E711CF501A080B1806F2D70E006FD23
:100D900002C06FEF7FEFC5010E941B099D878C8702
:100DA00000680DC0350132E0630E711CF5018081D1
:100DB000898321E030E03D872C8754010F7703FDC4
:100DC00006C02C853D855216130609F0A8F4E52CC3
:100DD0002BC0350132E0630E711CF501A080B1809B
:100DE0006F2D70E006FD02C06FEF7FEFC5010E941E
:100DF00026099D878C87E2CFB60180E290E00E94B1
:100E000031095A94DECFF50107FD859107FF8191E5
:100E10005F01B60190E00E943109E110EA948C85EF
:100E20009D8501979D878C87EC85FD85EF2B59F774
:100E30008CCE843619F0893609F074C0350107FF6D
:100E400066C0F4E06F0E711CF501608171818281D2
:100E50009381102F1F7697FF08C09095809570950D
:100E600061957F4F8F4F9F4F10682AE030E0A401BB
:100E70000E946109A82EA818BA2C012F16FF0AC0DB
:100E80000E7FAF1438F414FF04C012FD02C0012F0E
:100E90000E7EBF2C04FF8EC0FE01EA0DF11D808185
:100EA000803309F080C0097EF02FF870EF2E03FD2B
:100EB00090C000FF8AC0FA2CB51410F4F50CFB1892
:100EC00004FF8DC0B60180E390E00E94310902FF6B
:100ED00009C088E790E001FF02C088E590E0B60114
:100EE0000E943109AF1408F486C0AA940A2D10E0BC
:100EF0000F5F1F4F080D191DF80182918F01B60178
:100F000090E00E94310980169106B1F71ECEF2E002
:100F10006F0E711CF50160817181072E000C880B2A
:100F2000990B97CF102F8537A9F41F7E2AE030E068
:100F3000350117FF2FC0F4E06F0E711CF5016081C1
:100F4000718182819381A4010E946109A82EA81851
:100F50001F7792CF197F8F36D1F048F4883591F002
:100F6000F601868197812F96E2E10C94280880375C
:100F700039F08837A9F714FD146020E130E0D8CFAC
:100F80001061F9CF04FD166020E132E0D1CF28E0F6
:100F900030E0CECFF2E06F0E711CF50160817181FF
:100FA00090E080E0D0CF02FD02C0B3947DCFB39437
:100FB000B3947ACF802F867809F476CFF6CFB60136
:100FC00080E290E00E943109B394B514C0F3E12CA3
:100FD00077CFE52CEB18B51408F472CFF8CF802F3B
:100FE000867809F47FCF8BE201FF80E207FD8DE276
:100FF000B60190E075CFB60180E390E00E94310920
:10100000FA9470CF8FEF9FEFAECF24E0E12C25153F
:1010100008F063CD84E053CD2F923F924F925F92C0
:101020006F927F928F929F92AF92BF92CF92DF92F8
:10103000EF92FF920F931F93CF93DF93CDB7DEB75D
:10104000CA1BDB0B0FB6F894DEBF0FBECDBF0994F1
:101050002A88398848885F846E847D848C849B8448
:10106000AA84B984C884DF80EE80FD800C811B8156
:10107000AA81B981CE0FD11D0FB6F894DEBF0FBE85
:10108000CDBFED010895283008F027E03327DA01BD
:10109000990F311D87FD916000966105710539F446
:1010A00032602E5F3D9330E32A95E1F708959F3F2C
:1010B00030F080387105610509F03C5F3C5F3D937D
:1010C000913008F08068911DDF93CF931F930F93A9
:1010D000FF92EF92192F987F9695E92F9695969506
:1010E000E90FFF27E653FF4F99273327EE24FF240C
:1010F000A701E70105900894079428F4360FE71E2E
:10110000F81E491F511D660F771F881F991F0694EF
:10111000A1F70590079428F4E70EF81E491F561F03
:10112000C11D770F881F991F661F0694A1F70590B0
:10113000079428F4F80E491F561FC71FD11D880FAA
:10114000991F661F771F0694A1F70590079420F456
:10115000490F561FC71FD81F990F661F771F881F7B
:101160000694A9F784911095177041F0D695C7950C
:1011700057954795F794E7941A95C1F7E0E7F0E0A3
:1011800068941590159135916591959105907FE240
:101190007395E118F10A430B560BC90BD009C0F740
:1011A000E10CF11E431F561FC91FD01D7EF4703382
:1011B00011F48A95E6CFE894015030F0080F0AF454
:1011C0000027021708F4202F2395022F7A3328F0E6
:1011D00079E37D932A95E9F710C07D932A9589F6E6
:1011E000069497956795379517951794E118F10A26
:1011F000430B560BC90BD00998F023957E9173953C
:101200007A3308F070E37C932013B8F77E91706115
:101210007D9330F0839571E37D9370E32A95E1F738
:101220001124EF90FF900F911F91CF91DF9199279B
:1012300087FD90950895FC01059061507040011064
:10124000D8F7809590958E0F9F1F0895FC016150EF
:10125000704001900110D8F7809590958E0F9F1FD8
:1012600008950F931F93CF93DF93182F092FEB014E
:101270008B8181FD09C01FEF0FEF812F902FDF9130
:10128000CF911F910F91089582FF14C02E813F814D
:101290008C819D81281739073CF4E881F981CF01C1
:1012A00001969983888310838E819F8101969F8305
:1012B0008E83E3CFE885F985812F0995892BA1F3EA
:1012C000DACFFA01AA27283051F1203181F1E894D0
:1012D0006F936E7F6E5F7F4F8F4F9F4FAF4FB1E029
:1012E0003ED0B4E03CD0670F781F891F9A1FA11D24
:1012F000680F791F8A1F911DA11D6A0F711D811D25
:10130000911DA11D20D009F468943F912AE0269FE9
:1013100011243019305D3193DEF6CF010895462F48
:101320004770405D4193B3E00FD0C9F7F6CF462F29
:101330004F70405D4A3318F0495D31FD4052419392
:1013400002D0A9F7EACFB4E0A6959795879577954F
:101350006795BA95C9F700976105710508959B01D6
:10136000AC010A2E06945795479537952795BA955F
:10137000C9F7620F731F841F951FA01D0895FB01FD
:1013800051915523A9F0BF01DC014D914517411141
:10139000E1F759F4CD010190002049F04D9140153D
:1013A0004111C9F3FB014111EFCF81E090E00197BA
:1013B0000895AEE0B0E0EFEDF9E00C941A080D8965
:1013C0001E8986E08C831A8309838FEF9FE79E83B3
:1013D0008D83AE01475E5F4F6F89788DCE01019698
:1013E0000E94AB042F813885020F131FF801108271
:1013F0002E96E4E00C943608AEE0B0E0E2E0FAE0CD
:101400000C941C0885E08C838B899C899A83898342
:10141000AE01495E5F4F6D897E89CE0101960E94C3
:10142000A00B2E96E2E00C94380820FD09C0FC01C8
:1014300023FD05C022FF02C0738362835183408372
:10144000089544FD17C046FD1DC0DB01FC01AA0F35
:10145000BB1FEE1FFF1F1094D1F76A0F7B1F8E1F5B
:101460009F1F660F771F881F991F620F711D811DB7
:10147000911D089533E0660F771F881F991F315023
:10148000D1F7F3CF34E0F7CF0F931F93CF93DF93D0
:101490008C01C8010E94B90CEC0197FD08C00E94A4
:1014A000A50C892BB1F7B801CE010E94F50CCE0135
:1014B000DF91CF911F910F9108958F929F92AF92DC
:1014C000BF92EF92FF920F931F93CF93DF938C0104
:1014D000D62F7A01B22E0E94B90C9C0133272B32F1
:1014E000310529F02D323105A9F46894B7F8D150AF
:1014F00061F480E0DF91CF911F910F91FF90EF9009
:10150000BF90AF909F908F900895C8010E94B90C32
:1015100097FDEFCFCB2DCD7F2B2D2073F9F48033AA
:10152000E9F4AA24AA94AD0E89F0C8010E94B90C6E
:1015300097FD0CC0282F2F7D283561F4C264D2504E
:1015400029F0C8010E94B90C97FF08C0812C912C8A
:1015500054011BC0B6FE2BC0C260DA2D812C912C29
:10156000540120ED280F283028F1C4FD09C02A308D
:1015700008F1C6FF05C02F7D3FEE320F3630C8F0B0
:10158000B8010E94F50CC1FFB4CFC7FF08C0B094EA
:10159000A09490948094811C911CA11CB11C2C2FB0
:1015A000B501A401C7010E94150A81E0A3CFC26161
:1015B000D4CF27504C2FC501B4010E94210A4B0102
:1015C0005C01C260D15009F3C8010E94B90C97FFB9
:1015D000C8CFD9CFA0E2B0E0E0EFFAE00C94110858
:1015E0005C01962E7A01CE0101966C0180E2F60133
:1015F00011928A95E9F7F501B381890130E020E085
:10160000712C812CA0E041E050E0F801B3FD859100
:10161000B3FF8191982F8F01811107C010E000E086
:10162000C801A096EDE00C942D088E3519F4211513
:10163000310541F1A21713064CF48D3549F18D3275
:1016400029F4811006C0882483941DC0882009F4E1
:1016500064C0E92FE695E695E695EC0DFD2DF11DAC
:10166000892F8770BA0101C0660F8A95EAF78081D9
:10167000682B6083791651F0971510F49F5FE9CFBE
:101680009150E7CFA1E02F5F3F4FBFCF812CFBCF21
:10169000882019F08E8180628E83AA2359F0F6018A
:1016A0009E012F5D3F4F8081809580833196E217A8
:1016B000F307C9F788248394C5010E94B90C97FDEC
:1016C00016C0E82FE695E695E695EC0DFD2DF11D8B
:1016D000208130E0AC014770552702C03595279531
:1016E0004A95E2F720FD06C0B5010E94F50C88205E
:1016F00069F094CFE114F10429F0F7018083C70168
:1017000001967C019A94812C9110D6CFE114F104BA
:1017100009F486CFF701108283CFE82FE695E6958E
:10172000E695EC0DFD2DF11D982F9770BA0101C0C3
:10173000660F9A95EAF79081692B6083782EA3CF84
:10174000B0E0A0E0E6EAFBE00C940F086C01EB01CE
:101750005A01FC0117821682512CF601E380FE012A
:10176000E3FC8591E3FE8191182FEF018823E9F0D6
:1017700090E00E94A50C892B21F0C6010E94440A2A
:10178000ECCF153241F4FE01E3FC1591E3FE11911B
:10179000EF01153269F4C6010E94B90C97FD8EC0A5
:1017A0001817D9F2B6010E94F50C852D90E08AC079
:1017B00000E01A3231F4E3FC1591E3FE1191EF01E0
:1017C00001E0F12C20ED210F2A3048F101FF37C054
:1017D000FF2059F31836B1F11C3609F43DC011232E
:1017E00021F3612F70E08AE691E00E94AE0C892B14
:1017F000E1F2912C812C00FD06C0F50180809180E2
:10180000C50102965C011E3679F5F60146815781C5
:1018100070E060E0202FC4010E94150A9ECF026094
:101820006F2D70E090E080E040E20E94210AF62EE9
:10183000FE01E3FC1591E3FE1191EF01C3CFFF24FC
:10184000FA94C8CFFE01E3FC1591E3FE1191EF017C
:10185000183609F0C4CF08600460FE01E3FC15915E
:10186000E3FE1191EF01BBCF1336C1F401FD02C0BD
:10187000FF24F394C6010E94B90C97FD1FC0811488
:10188000910429F0F4018083C40101964C01FA947B
:10189000F110F0CF00FD61CF53945FCF1B35B9F449
:1018A0009E01A4016F2DC6010E94EA0AEC01892B5A
:1018B00089F7F6018381807309F477CF8FEF9FEF6B
:1018C000511073CFCDB7DEB7EFE00C942B08C601F3
:1018D0000E94440A97FDF2CF1F36A9F130F4143666
:1018E00041F0193639F0006405C01337B9F01537E7
:1018F000D1F70062202FA4016F2DC6010E945D0A5E
:101900008111C8CFD6CF8114910429F0F4016082EF
:10191000C40101964C01FA94FF2071F0C6010E94A7
:10192000B90C3C0197FD08C00E94A50C892B59F306
:10193000B601C3010E94F50C8114910409F4AACFE9
:10194000F4011082A7CF0061D5CF91110C940D0D39
:10195000803219F089508550C8F70895FC01059030
:10196000061621F00020D9F7C00108953197CF0164
:101970000895CF93DF93EC012B8120FF1AC026FF3F
:101980000CC02F7B2B838E819F8101969F838E833A
:101990008A8190E0DF91CF91089522FF18C0E881FD
:1019A000F9818081082E000C990B009729F42062A0
:1019B0002B838FEF9FEFEECF3196F983E8832E8153
:1019C0003F812F5F3F4F3F832E839927E3CFEA85E7
:1019D000FB85099597FFF3CF2B81019621F080E2DB
:1019E000822B8B83E6CF80E1FBCFFB01238120FF9D
:1019F00011C026FD0FC08F3F980771F082832F7DA5
:101A0000206423832681378121503109378326833F
:101A1000992708958FEF9FEF0895992788270895B4
:041A2000F894FFCF68
:101A24004552524F520041542B434D47523D3100D1
:101A34000D0A2B434D47523A2022252A5B5E225D34
:101A4400222C22255B5E225D222C22222C22252A96
:101A54005B5E225D220D0A255B5E0D5D0D0A00535F
:101A64005343414E463A20256400503A4F46462C93
:101A74004D3A4F464600503A4F4E2C4D3A4C4F5734
:101A840000503A4F4E2C4D3A4849474800503A4F7F
:101A940046462C4D3A4C4F5700503A4F46462C4D33
:101AA4003A4849474800614B6152655A61004154C4
:101AB4002B51504F57443D30004D36365F537461BF
:101AC4007274757000524459002B4346554E002BD6
:101AD4004350494E0043616C6C2052656164790047
:101AE400534D53205265616479004D36365F436F20
:101AF4006E66696700415445300041542B43465596
:101B04004E3D310041542B434D47463D3100415435
:101B14002B435343533D2247534D220041542B43FF
:101B2400534D503D31372C3136372C302C30004159
:101B3400542B434D47443D312C3400526561647944
:101B44002E2E2E002B393839333535323832313296
:101B5400340041542B434D47533D22257322003E0C
:101B6400004D36365F5265735F4F4B0048657920F0
:101B74006D79206E616D6520697320524353004D69
:101B840036365F5265735F455252004D36365F52AA
:101B940065735F54696D654F7574002B434D5449EB
:021BA40000003F
:00000001FF
